{
	"data": {
		"bytecode": {
			"linkReferences": {},
			"object": "608060405260405160208061014f83398101806040528101908080519060200190929190505050806000806101000a81548173ffffffffffffffffffffffffffffffffffffffff021916908373ffffffffffffffffffffffffffffffffffffffff1602179055505060da806100756000396000f3006080604052600436106049576000357c0100000000000000000000000000000000000000000000000000000000900463ffffffff168063325ec76814604e578063a3e76c0f14606e575b600080fd5b60546076565b604051808215151515815260200191505060405180910390f35b607460ac565b005b60008060008034111515608857600080fd5b813073ffffffffffffffffffffffffffffffffffffffff1631119050809250505090565b5600a165627a7a723058200c334e4a6323cad05d5fd6977412f0fea2f3a3304400793c2e8a71ac2bbf2d780029",
			"opcodes": "PUSH1 0x80 PUSH1 0x40 MSTORE PUSH1 0x40 MLOAD PUSH1 0x20 DUP1 PUSH2 0x14F DUP4 CODECOPY DUP2 ADD DUP1 PUSH1 0x40 MSTORE DUP2 ADD SWAP1 DUP1 DUP1 MLOAD SWAP1 PUSH1 0x20 ADD SWAP1 SWAP3 SWAP2 SWAP1 POP POP POP DUP1 PUSH1 0x0 DUP1 PUSH2 0x100 EXP DUP2 SLOAD DUP2 PUSH20 0xFFFFFFFFFFFFFFFFFFFFFFFFFFFFFFFFFFFFFFFF MUL NOT AND SWAP1 DUP4 PUSH20 0xFFFFFFFFFFFFFFFFFFFFFFFFFFFFFFFFFFFFFFFF AND MUL OR SWAP1 SSTORE POP POP PUSH1 0xDA DUP1 PUSH2 0x75 PUSH1 0x0 CODECOPY PUSH1 0x0 RETURN STOP PUSH1 0x80 PUSH1 0x40 MSTORE PUSH1 0x4 CALLDATASIZE LT PUSH1 0x49 JUMPI PUSH1 0x0 CALLDATALOAD PUSH29 0x100000000000000000000000000000000000000000000000000000000 SWAP1 DIV PUSH4 0xFFFFFFFF AND DUP1 PUSH4 0x325EC768 EQ PUSH1 0x4E JUMPI DUP1 PUSH4 0xA3E76C0F EQ PUSH1 0x6E JUMPI JUMPDEST PUSH1 0x0 DUP1 REVERT JUMPDEST PUSH1 0x54 PUSH1 0x76 JUMP JUMPDEST PUSH1 0x40 MLOAD DUP1 DUP3 ISZERO ISZERO ISZERO ISZERO DUP2 MSTORE PUSH1 0x20 ADD SWAP2 POP POP PUSH1 0x40 MLOAD DUP1 SWAP2 SUB SWAP1 RETURN JUMPDEST PUSH1 0x74 PUSH1 0xAC JUMP JUMPDEST STOP JUMPDEST PUSH1 0x0 DUP1 PUSH1 0x0 DUP1 CALLVALUE GT ISZERO ISZERO PUSH1 0x88 JUMPI PUSH1 0x0 DUP1 REVERT JUMPDEST DUP2 ADDRESS PUSH20 0xFFFFFFFFFFFFFFFFFFFFFFFFFFFFFFFFFFFFFFFF AND BALANCE GT SWAP1 POP DUP1 SWAP3 POP POP POP SWAP1 JUMP JUMPDEST JUMP STOP LOG1 PUSH6 0x627A7A723058 KECCAK256 0xc CALLER 0x4e 0x4a PUSH4 0x23CAD05D 0x5f 0xd6 SWAP8 PUSH21 0x12F0FEA2F3A3304400793C2E8A71AC2BBF2D780029 "
		},
		"gasEstimates": {
			"creation": {
				"codeDepositCost": "43600",
				"executionCost": "20422",
				"totalCost": "64022"
			},
			"external": {
				"receive()": "131",
				"sendEtherToContract()": "647"
			}
		},
		"methodIdentifiers": {
			"receive()": "a3e76c0f",
			"sendEtherToContract()": "325ec768"
		}
	},
	"abi": [
		{
			"constant": false,
			"inputs": [],
			"name": "sendEtherToContract",
			"outputs": [
				{
					"name": "",
					"type": "bool"
				}
			],
			"payable": true,
			"stateMutability": "payable",
			"type": "function"
		},
		{
			"constant": false,
			"inputs": [],
			"name": "receive",
			"outputs": [],
			"payable": true,
			"stateMutability": "payable",
			"type": "function"
		},
		{
			"inputs": [
				{
					"name": "_addr",
					"type": "address"
				}
			],
			"payable": true,
			"stateMutability": "payable",
			"type": "constructor"
		}
	]
}